:050E8E004200C000005D
:100B54007C277D109000F4E0FEA3E0FF0200A0EDEE
:100B640025E0FFEC33FE74AC2FF58274003EF58370
:100B7400227E00CFCDCFCECCCE0200A0EBF0A3EAF4
:100B8400F0A3E9F0229000F4E0FEA3E0FF7C000271
:100B940000A0E0FBA3E0FAA3E0F92275F06484E589
:100BA400F075F00A84A3F0228F8275830002003F5F
:100BB40075F00A849000FDE5F0F022748C2FF58224
:100BC400E43400F58322748C2FF58274003EF5839F
:080BD400227B017A0079C222A4
:0C1161007F7A7EC17D80DDFEDEFCDFFABF
:01116D00225F
:1010D800538E7F5389F0758AE0758CB1C28DD28C9E
:0710E800D2A9D2ACD2AF2265
:100F6600538EFE9000C2E054F84401F0120BD5E413
:100F76009000FBF07F807E25FDFC120BDC120BD56A
:100F860012083E1210D89000AC7404F0A374D2F08C
:050F9600120C6280FB5B
:03000B00020D994A
:100D9900C0E0C083C082C0D075D000C004C005C007
:100DA90007900000E0FF30E02F900002E004F0E03F
:100DB900FD7C00D39402748094804007EF44029034
:100DC9000000F0D3ED9408EC64809480400A900010
:100DD90000E04404F054FEF0D007D005D004D0D090
:070DE900D082D083D0E0327C
:08000300120BD5AD07020F9BA3
:0C05F4009000F4EEF0A3EFF0A3120B80D7
:100600007F611200037F641200037F641200037F86
:10061000721200037F3D120003120B54AB07120B42
:10062000547E037FE8120B779000FAEFF07C037D95
:10063000E8120B587F64120B759000FBEFF07D649D
:10064000120B897F0A120B759000FCEFF07D0A12E5
:100650000B899000FDEDF0AF03EF1207309000FA28
:1006600012071D9000FBE0120702120725E490001C
:10067000FEF09000F9E0FF9000FEE0C39F4003020F
:1006800007017F621200037F751200037F6812006A
:10069000037F5B1200039000FEE0FF75F06484FEB0
:1006A0009000FBF0EF120B9F9000FEE0120BB4EEF7
:1006B0001207027F5D1200037F3D1200039000F6D7
:1006C000120B969000FEE0FFF582120BAEFE75F065
:1006D0006484FD9000FBF0EE120B9F120BAC120B2A
:1006E000B4ED1207309000FC12071D9000FDE024CD
:1006F00030FF1200031207259000FEE004F002060E
:010700007286
:10070100222430FF1200039000FCE02430FF12008D
:10071100039000FDE02430FF12000322E02430FFAB
:10072100120003227F0D1200037F0A12000322240C
:0607310030FF120003225C
:0311B1007F012299
:06105300900116120B8053
:10105900E4FF900119E0FEEFC39E501290011612B1
:0E1069000B96120BACFE120BBFEEF00F80E4E4
:011077002256
:06102900900116120B807D
:10102F00E4FF900119E0FEEFC39E5017120BBFE0D3
:10103F00FE900116120B968F82758300EE12007EC2
:03104F000F80DF30
:01105200227B
:0311B4000202C96B
:0311B7007F012293
:08119E00120BCAE0FF7E0022E3
:0611A600120BCAEDF0225D
:0311BA007F012290
:0F114400EF4E700A308003048001E412006C2229
:0C116E00EF4E7007AF808FF0120143229B
:10000E00EF4E700FED9000C16005E04401F022E06C
:04001E0054FEF0227A
:10111D00EF4E700F9000C1E030E00474018001E4E7
:04112D0012006C221E
:0E115300EF25E0FFEE120B68ECF0A3EDF022AA
:1010BD00AD07AC06120B63E0FFA3E0CF8FF012017A
:0B10CD0043120B63E475F0010200F514
:0311BD00D2AF228C
:040E930041012900F0
:100A3700E47FE87E03FDFCE0F8A3E0F9A3E0FAA376
:100A4700E0FB12018F9000FFE0F8A3E0F9A3E0FAC2
:100A5700A3E0FB22E0FFC3E49FFD74019400FCEDDB
:100A6700FE2400FFEC3EFE9000FCE0FBA3E0FAA3AF
:100A7700E0229000FFE0FCA3E0FDA3E0FEA3E0225C
:100A87002401F9E43AFA020026EBF0A3EAF0A3E91D
:100A9700F0229BFFEE9AFEED99FDEC98FC0202BD59
:100AA70012006C90012322E47F14FEFDFC22F990D2
:100AB7000002EE8FF0020162F912002654EF0200E5
:010AC7006CC2
:10083E00120026FF54071460030208EFEF13131380
:10084E00541F30E004D2AC8002C2AC120026FFC4AA
:10085E00540F30E004D2BC8002C2BCEFC413540764
:10086E0030E004D29C8002C29C120026C4131354A2
:10087E000330E005438780800353877F9000011289
:10088E00003F540314600F14601614601D2403708F
:10089E002153983F801CE598543F4440F5988012B0
:1008AE00E598543F4480F5988008E598543F44C03D
:1008BE00F59853897F5389BFE58954CF4420F58934
:1008CE0090000212010BAEF0F58BEEF58DC28FD2B9
:1008DE008E900122E04401F0900121E04402F0806C
:0708EE00037F01227F0022BD
:060CD600900123120A90B8
:100CDC00ED147059900123120A71F912002654F880
:100CEC004401120AA7120A71F91200264420120AB2
:100CFC00A7120A71F97FC07E127D007C001204A736
:100D0C00EF600122900123120A71120A8754FC44ED
:100D1C000112006C54E3120AA7120A71F912002690
:100D2C0054F7120AA7120A71120ABF80037F01221C
:020D3C007F0036
:010D3E002292
:0A04A7009000FC120A90A31202BD9F
:1004B100120A4CE47F247EF4FDFC12021A9001031F
:1004C100EFF0120A4C7F487EE87D017C0012021A8F
:1004D100900104EFF0900103E0FBE4FAF9F87F24C6
:1004E1007EF4FDFC120F229001051202BD90010461
:1004F100E0FBE4FAF9F87F487EE87D01FC120F2267
:100501009001091202BD120A79FF900105120A4FEA
:10051100D31202AC400B120A4C900105120A7C80E6
:100521000A900105120A4F120A79C390010D120AAD
:1005310099120A79FF900109120A4FD31202AC40B5
:100541000B120A4C900109120A7C800A90010912CF
:100551000A4F120A79C3900111120A9990010D12E2
:100561000A3712021A90010D1202BD900111120AEE
:100571003712021A9001111202BD120AAE90010D3A
:10058100120A4FD31202AC4012120AAE900111129C
:100591000A4FD31202AC40037F0222120AAE90012D
:1005A1000D120A4FC31202AC5015120A6EF9120055
:1005B1002654BF12006C900103120A5B120AB51295
:1005C1000AAE900111120A4FC31202AC5015120A61
:1005D1006EF9120026444012006C900104120A5B6D
:1005E100120AB5120A6E120A8754FC440112006CF9
:0205F1007F0089
:0105F30022E5
:100BDC009000F4120A90A31202BD9000FBE0FED329
:100BEC0094057480948040037F0322EE540725E023
:100BFC0025E0FF9000F4120A71120A8754E34F1299
:100C0C00006CEE9000F4700C120A71120A8754FCFE
:100C1C0044018008120A71120A87440312006C9076
:100C2C0000F4120A71F9120026442012006C900094
:100C3C00F4120A71F9120026440812006C9000F4A8
:100C4C00120A71120ABF9000F4120A71F9A3120A67
:060C5C007CFF1204A72238
:100F9B00120026FF5407147022AE058E99EF13131F
:100FAB0013541F30E00E9001297401F0900129E0D9
:100FBB00600C80F83099FDC29980037F01227F007D
:010FCB002203
:060FFB0090011A120A9099
:1010010090011D120A71F9120026FD601890011A53
:10101100120A71F9120F9BAC0790011EE475F001E1
:071021001200F580DBAF04B3
:0110280022A5
:03002300020D3F8C
:100D3F00C0E0C083C082C0D075D000C00730990713
:100D4F00C299900129E4F0309835C298900002E4DE
:100D5F00F090000004F090008BE0FF04F074042F7B
:100D6F00F582E43400F583E599F0900001E004F09A
:100D7F0090008BE0C39487748094804002E4F0D09D
:0A0D8F0007D0D0D082D083D0E0322C
:0511AC00D280D2812277
:1010EF00D281D2802081037FFF22C2813081037F92
:0710FF00FF22C2807F0022E6
:09117A00C281C280D280D2812220
:09118300C280C281D280C2802228
:09118C00C280D281D280C280220F
:10113100C280D281D280308105C2807FFF22C280ED
:031141007F00220A
:10107800C280E4FEEEC39408748094805015EF306B
:10108800E704D2818002C281D280EF25E0FFC280CE
:031098000E80E1E6
:01109B002232
:10109C00E4FFD281FEEEC39408748094805011EF6B
:1010AC0025E0FFD2803081034401FFC2800E80E531
:0110BC002211
:0B0ED800900126EBF0A3EAF0A3E9F084
:100EE300E4FDFCECC3948074809480502F1210EFC7
:100EF300EC25E0FF121078121131EF7019EC25E0A8
:100F0300FF900126E0FBA3E0FAA3E0F98D8275834D
:0E0F130000EF12007E0D12117A0C80C7AF05A0
:010F210022AD
:100E97004100030041008B004100010041000200B6
:040EA7004100000006
:09119500E0C39487748094802269
:100C6200900000E0FF30E15CA3E0FD7C00D3940043
:100C7200748094804044ED121197503EEF54FD90E1
:100C82000000F0900001E06027900003E02404F5EA
:100C920082E43400F583E0FF1211B4900003E00413
:100CA200F01211954002E4F0900001E014F080D3BC
:100CB20090008BE0900003F0800A900001121195E1
:100CC2004002E4F0900000E030E20854FBF0E490CF
:040CD20000F3F02219
:100EAB004100F3004100EA004100C6004100ED00A3
:100EBB004100C9004100EE004200EB00004200F18E
:0C0ECB0000004200C700004200EF0000E1
:1009A500ECF09000C7E0FEA3E0FFAD04120FCC9081
:1009B50000C7EEF0A3EFF022A3E0FD120FCC9000EC
:1009C500F6EEF0A3EFF022A3E0FD120FCC90011597
:1009D500EEF0A3EFF0229000F1E0FEA3E0FF7B0133
:1009E50022E0FE74CA2FF582E43400F583229000DC
:1009F500F3F09000C7E0FEA3E0FF22E0FD120FCC6C
:100A0500A3EEF0A3EFF022F07DEC74FFFFFE22E8E9
:100A1500F0ECFFA3E02FF0229000F6E0FEA3E0FF4C
:100A2500229000F5E0FF9000F4E022ECFFE4F0A353
:020A3500EF22AE
:100FCC00ED6FFFE4FDEDC3940874809480501FEF27
:100FDC0030E011EEC313FEEF13FFEE64A0FEEF64DE
:0E0FEC0001FF8007EEC313FEEF13FF0D80D749
:010FFA0022D4
:0508F500900114EFF07A
:1008FA009000EDE0700302099D120A0D1209CFE47F
:10090A001209CE7DFF1209CF9000ED1209CD121106
:10091A00B1AD07900115E0FEA3E0FF1209CF9001E7
:10092A0014120A009000EB1209CD9000EB1209CCC8
:10093A009000F11209CD9000F11209CC7FEC12005F
:10094A0003E4FF1200037FFF1200039000EDE0FFB3
:10095A001200031211B1120003900114E0FF1200F9
:10096A00039000EBE0FF1200039000EB12099E9047
:10097A0000F1E0FF1200039000F112099E900115A8
:10098A00E0FF120003900115A3E0FF1200037FBEEF
:03099A0012000345
:08099D0022A3E0FF1200032277
:100737009000CAE09000F5F0FD1209DB7A0079CA53
:10074700900119EDF01210299000EDE070030208F6
:1007570036120A0D1209C09000F5120A009000F532
:10076700E0F4120A019000ED1209BE1211B1AD07B3
:10077700120A1D1209C07D031209C09000EB12096D
:10078700BE9000EB1209BD9000F11209BE9000F176
:100797001209BDE49000F4F0120A26FDC39F50141D
:1007A700120A1D74CA2D1209EB1209BE9000F4E05B
:1007B70004F080E47FEC1200039000F5E0FF1200E4
:1007C700039000F5E0F4FF1200039000EDE0FF1244
:1007D70000031211B11200037F031200039000EB14
:1007E700E0FF1200039000EB1208379000F1E0FFE2
:1007F7001200039000F1120837E49000F4F0120A97
:1008070026FEC39F501374CA2E1209EBE0FF120095
:10081700039000F4E004F080E59000F6E0FF12009A
:0F082700039000F6A3E0FF1200037FBE12000350
:0808360022A3E0FF12000322DF
:101106001209DB7A0079CA9000EAE0900119F01220
:0711160010537F050208F5EC
:100DF0001209DB7A0079F49000EAE0900119F01210
:100E00001029E4FF9000EAE0FDEFC39D501D74F44B
:100E10002FF582E43400F583C083C0821209E6E036
:100E2000FCEE4CD082D083F00F80D91209DB7A001F
:0F0E300079F4900119EDF01210537F070208F5C5
:100E3F001209DB7A0079F49000EAE0900119F012C0
:100E4F001029E4FF9000EAE0FDEFC39D501D74F4FC
:100E5F002FF582E43400F583C083C0821209E6E0E7
:100E6F00FCEE5CD082D083F00F80D91209DB7A00C0
:0F0E7F0079F4900119EDF01210537F090208F574
:1002C900AC079000F3E0B40E0040030204A69002CC
:1002D900DEF828287302030802031202031F02032F
:1002E9006002036D02037A0203870203970203B9CE
:1002F9000203C90203F1020415020426020442ECB6
:1003090064EC60030204A6803E9000EA1209A590FD
:1003190000F37402F022ECF4FF9000EAE0FBB50769
:100329000774031209F38015EB64EC70159000F360
:100339007402F09000EAEC120A0C1209B1AD040241
:1003490003B5EC64EC700A9000F304120A0C020382
:10035900B5E49000F3F0229000C91209A59000F3CA
:100369007404F0229000ED1209A59000F37405F0D1
:10037900229000EE1209A59000F37406F022900075
:10038900EB120A30F074071209F3E4FD801E9000A5
:10039900ECE0F8E4F09000EB120A149000EBE03482
:1003A90000F09000F374081209F6E4FD1209B12275
:1003B9009000F1120A301209A69000F37409F02294
:1003C9009000F2E0F8E4F09000F1120A149000F1C4
:1003D900E034001209A69000EAE09000F360297465
:1003E9000AF0E49000C6F0229000C6E0FF04F01283
:1003F90009E81209A59000EAE0FF9000C6E0C39F52
:1004090050030204A69000F3740BF022ECFF900055
:10041900EFE4F0A3EFF09000F3740CF0229000F0F9
:10042900E0F8E4F0E89000EF120A159000EFE034EC
:1004390000F09000F3740DF022E49000F3F0EC6406
:10044900BE705A1209F79000EFE06E7003A3E06FD7
:10045900704B1211B19000C9E0FE6F6003EE703D60
:100469009000EEE024FE601714602014601424FE4E
:10047900601324FE6012240870237F010208F5022C
:100489000737021106020DF0020E3F1209DB7A004E
:0E04990079CA9000EAE09000F9F01205F42212
:03000000020AC829
:0C0AC800787FE4F6D8FD758107020B0F63
:10002600BB010689828A83E0225002E722BBFE02D8
:09003600E32289828A83E493220B
:10003F00BB010CE58229F582E5833AF583E0225076
:10004F0006E92582F8E622BBFE06E92582F8E222C0
:0D005F00E58229F582E5833AF583E49322DA
:10006C00BB010689828A83F0225002F722BBFE0173
:02007C00F3226D
:10007E00F8BB010DE58229F582E5833AF583E8F0B8
:10008E00225006E92582C8F622BBFE05E92582C864
:02009E00F2224C
:1000A000BC000BBE0029EF8DF084FFADF022E4CC44
:1000B000F875F008EF2FFFEE33FEEC33FCEE9DEC0D
:1000C000984005FCEE9DFE0FD5F0E9E4CEFD22ED53
:1000D000F8F5F0EE8420D21CFEADF075F008EF2F9D
:1000E000FFED33FD4007985006D5F0F222C398FD8E
:0500F0000FD5F0EA222B
:1000F500C5F0F8A3E028F0C5F0F8E5821582700296
:060105001583E038F02232
:10010B00BB0110E58229F582E5833AF583E0F5F032
:10011B00A3E0225009E92582F886F008E622BBFE0F
:10012B000AE92582F8E2F5F008E222E5832AF58355
:08013B00E993F5F0A3E993221A
:10014300BB010A89828A83F0E5F0A3F0225006F707
:0F01530009A7F01922BBFE06F3E5F009F3192204
:10016200F8BB0111E58229F582E5833AF583E8F0CF
:10017200E5F0A3F0225009E92582C8F608A6F0228C
:0D018200BBFE09E92582C8F2E5F008F22273
:10018F00E88FF0A4CC8BF0A42CFCE98EF0A42CFC0F
:10019F008AF0EDA42CFCEA8EF0A4CDA8F08BF0A48D
:1001AF002DCC3825F0FDE98FF0A42CCD35F0FCEBEC
:1001BF008EF0A4FEA9F0EB8FF0A4CFC5F02ECD39B1
:0F01CF00FEE43CFCEAA42DCE35F0FDE43CFC221E
:1001DE0075F008758200EF2FFFEE33FECD33CDCCD8
:1001EE0033CCC58233C5829BED9AEC99E58298405B
:1001FE000CF582EE9BFEED9AFDEC99FC0FD5F0D638
:10020E00E4CEFBE4CDFAE4CCF9A88222B800C1B961
:10021E000059BA002DEC8BF084CFCECDFCE5F0CB9F
:10022E00F97818EF2FFFEE33FEED33FDEC33FCEBD8
:10023E0033FB10D703994004EB99FB0FD8E5E4F993
:10024E00FA227818EF2FFFEE33FEED33FDEC33FC80
:10025E00C933C910D7059BE99A4007EC9BFCE99A74
:10026E00F90FD8E0E4C9FAE4CCFB2275F010EF2FB9
:10027E00FFEE33FEED33FDCC33CCC833C810D707B9
:10028E009BEC9AE899400AED9BFDEC9AFCE899F8F4
:0E029E000FD5F0DAE4CDFBE4CCFAE4C8F92287
:100F2200C2D5E830E70FB2D5E4C39BFBE49AFAE4FA
:100F320099F9E498F8EC30E717B2D5120F5812027B
:100F42001AE4C39BFBE49AFAE499F9E498F8800363
:100F520012021A30D50DE4C39FFFE49EFEE49DFD0C
:040F6200E49CFC22ED
:1002AC00EB9FF5F0EA9E42F0E99D42F0E89C45F0A8
:0102BC00221F
:0C02BD00ECF0A3EDF0A3EEF0A3EFF022B4
:100AD400020F66E493A3F8E493A34003F68001F2C3
:100AE40008DFF48029E493A3F85407240CC8C33323
:100AF400C4540F4420C8834004F456800146F6DFF2
:100B0400E4800B0102040810204080900E8EE47EE5
:100B1400019360BCA3FF543F30E509541FFEE493E6
:100B2400A360010ECF54C025E060A840B8E493A3AD
:100B3400FAE493A3F8E493A3C8C582C8CAC583CAD8
:100B4400F0A3C8C582C8CAC583CADFE9DEE780BE90
:010ED700001A
:00000001FF
